S01700004763634170706C69636174696F6E312E737265635B
S11300000C9434000C9449000C9449000C9449005D
S11300100C9449000C9449000C9449000C94490038
S11300200C9449000C9449000C9449000C94490028
S11300300C9449000C9449000C9449000C94490018
S11300400C9449000C9449000C9449000C94490008
S11300500C9449000C9449000C9449000C944900F8
S11300600C9449000C94490011241FBECFEFD8E032
S1130070DEBFCDBF11E0A0E0B1E0E6E0F9E002C0F0
S113008005900D92A431B107D9F70E9411010C9487
S113009081040C94000085B95E985D985C9A83EFA6
S11300A091E00197F1F700C000005C9808958BE49B
S11300B09DE10197F1F700C0000088E30E944B0026
S11300C089EF90E00197F1F700C0000081E00E9401
S11300D04B0089EF90E00197F1F700C0000082E047
S11300E00E944B0089EF90E00197F1F700C00000F7
S11300F086E00E944B0089EF90E00197F1F700C081
S1130100000080E80E944B0089EF90E00197F1F72E
S113011000C00000089585B95E9A5D985C9A83EFEB
S113012091E00197F1F700C000005C980895CF9327
S1130130DF93EC018881882331F021960E948B00A3
S113014089918111FBCFDF91CF910895ECE7F0E025
S1130150808180648083EAE7F0E080818068808326
S11301608081806480838081876080830895ECE748
S1130170F0E09081907F90839081892B8083EAE7DF
S1130180F0E0808180648083808186FDFDCF809152
S113019078009091790008950F931F93CF93DF9384
S11301A0CDB7DEB728970FB6F894DEBF0FBECDBF2C
S11301B0DB01AE014F5F5F4F28E0FA0111922A95EF
S11301C0E9F7FC0188589F4F019111912D913C91C1
S11301D01197020F131F11961C930E93E817F9073A
S11301E099F780E091E00E949700C8016CE370E009
S11301F00E941904CB014AE050E0BE016F5F7F4FBB
S11302000E944104CE0101960E94970028960FB6E1
S1130210F894DEBF0FBECDBFDF91CF911F910F9138
S11302200895CF93DF93CDB7DEB7C258D1090FB687
S1130230F894DEBF0FBECDBF8FEF84B98AB917B86B
S11302401A821982FE01339688E7DF011D928A958E
S1130250E9F70E9457000E94A600E7EAF1E6319709
S1130260F1F700C000008EE00E944B0087EA91E69F
S11302700197F1F700C00000912CE12CF12C8E01C4
S113028005581F4F6894AA24A3F8BB24B394D8013B
S1130290EA2D1D92EA95E9F780E00E94B700BC01BF
S11302A080E090E00E941E0320E030E040EA50E449
S11302B00E94AC0320E030EC4FE754E40E94760245
S11302C020E030E040E652E40E94AC0320E030E05D
S11302D04AE952E40E940A0220E030E040E85FE389
S11302E00E940A020E94E8022B013C016B016E3558
S11302F0714014F05A9A01C05A98E114F10411F5AE
S113030062012FEFC21AD20A8AE091E00E9497009C
S11303104AE050E0B801C6010E944104C8010E94AD
S1130320970080E20E948B004AE050E0B80180E030
S113033090E00E944104C8010E94970080EC0E9452
S11303404B002FC08AE091E00E9497004AE050E001
S1130350B801C2010E944104C8010E94970080E2D2
S11303600E948B004AE050E0B801C7010E9441049A
S1130370C8010E94970080EC0E944B008BE3E816B2
S1130380F10479F4EB965FAE4EAEEB97BE016F5F6E
S11303907F4FCE0103960E94CC009B2CE12CF12CC4
S11303A026C09920B1F0F701EE0FFF1FA1E0B0E0E5
S11303B0AC0FBD1FEA0FFB1FD382C282BFEFEB1A43
S11303C0FB0ABE016F5F7F4FCE0103960E94CC00F3
S11303D00EC0F701EE0FFF1F81E090E08C0F9D1F10
S11303E0E80FF91FD382C2829FEFE91AF90A1A8231
S11303F019828EE00E944B00AFE3BDE0E3E0A15020
S1130400B040E040E1F700C000008B2D0E944B009B
S11304103ECF5058BB27AA270E9421020C94720396
S11304200E94640338F00E946B0320F039F49F3F6C
S113043019F426F40C9461030EF4E095E7FB0C9494
S11304405B03E92F0E94830358F3BA17620773070B
S11304508407950720F079F4A6F50C94A5030EF40F
S1130460E0950B2EBA2FA02D0B01B90190010C01C0
S1130470CA01A0011124FF27591B99F0593F50F4D8
S1130480503E68F11A16F040A22F232F342F442730
S1130490585FF3CF469537952795A795F040539528
S11304A0C9F77EF41F16BA0B620B730B840BBAF0F8
S11304B09150A1F0FF0FBB1F661F771F881FC2F763
S11304C00EC0BA0F621F731F841F48F48795779577
S11304D06795B795F7959E3F08F0B0CF9395880F31
S11304E008F09927EE0F9795879508950E948A0240
S11304F00C9472030E946B0358F00E94640340F052
S113050029F45F3F29F00C945B0351110C94A6036A
S11305100C9461030E94830368F39923B1F3552378
S113052091F3951B550BBB27AA2762177307840702
S113053038F09F5F5F4F220F331F441FAA1FA9F398
S113054035D00E2E3AF0E0E832D091505040E69586
S1130550001CCAF72BD0FE2F29D0660F771F881FE7
S1130560BB1F261737074807AB07B0E809F0BB0BDA
S1130570802DBF01FF2793585F4F3AF09E3F5105EE
S113058078F00C945B030C94A6035F3FE4F3983E6D
S1130590D4F3869577956795B795F7959F5FC9F7D7
S11305A0880F911D9695879597F90895E1E0660F58
S11305B0771F881FBB1F621773078407BA0720F0D1
S11305C0621B730B840BBA0BEE1F88F7E09508953A
S11305D00E94EF026894B1110C94A60308950E943E
S11305E08B0388F09F5798F0B92F9927B751B0F033
S11305F0E1F0660F771F881F991F1AF0BA95C9F7A3
S113060014C0B13091F00E94A503B1E008950C9498
S1130610A503672F782F8827B85F39F0B93FCCF34B
S1130620869577956795B395D9F73EF4909580951F
S1130630709561957F4F8F4F9F4F0895E89409C03F
S113064097FB3EF490958095709561957F4F8F4F01
S11306509F4F9923A9F0F92F96E9BB279395F69517
S1130660879577956795B795F111F8CFFAF4BB0F95
S113067011F460FF1BC06F5F7F4F8F4F9F4F16C0F9
S1130680882311F096E911C0772321F09EE8872F83
S1130690762F05C0662371F096E8862F70E060E03F
S11306A02AF09A95660F771F881FDAF7880F9695B8
S11306B0879597F9089597F99F6780E870E060E05F
S11306C008959FEF80EC089500240A9416161706E7
S11306D018060906089500240A941216130614062F
S11306E005060895092E0394000C11F4882352F092
S11306F0BB0F40F4BF2B11F460FF04C06F5F7F4F4A
S11307008F4F9F4F089557FD9058440F551F59F030
S11307105F3F71F04795880F97FB991F61F09F3FEA
S113072079F087950895121613061406551FF2CF13
S11307304695F1DF08C0161617061806991FF1CF63
S113074086957105610508940895E894BB2766278A
S11307507727CB0197F908950E94BF030C94720385
S11307600E94640338F00E946B0320F0952311F07B
S11307700C945B030C94610311240C94A6030E9453
S1130780830370F3959FC1F3950F50E0551F629F4B
S1130790F001729FBB27F00DB11D639FAA27F00DD6
S11307A0B11DAA1F649F6627B00DA11D661F829FFD
S11307B02227B00DA11D621F739FB00DA11D621FE2
S11307C0839FA00D611D221F749F3327A00D611DFF
S11307D0231F849F600D211D822F762F6A2F1124E1
S11307E09F5750409AF0F1F088234AF0EE0FFF1F14
S11307F0BB1F661F771F881F91505040A9F79E3F6B
S1130800510580F00C945B030C94A6035F3FE4F362
S1130810983ED4F3869577956795B795F795E795C0
S11308209F5FC1F7FE2B880F911D9695879597F9C9
S1130830089597FB072E16F4009407D077FD09D08E
S11308400E942D0407FC05D03EF4909581959F4F9E
S11308500895709561957F4F0895AA1BBB1B51E1C4
S113086007C0AA1FBB1FA617B70710F0A61BB70B1C
S1130870881F991F5A95A9F780959095BC01CD01C1
S113088008954532510520F4423010F00C944C0484
S1130890FB011082CB010895BB274A3031F4992320
S11308A022F4BDE2909581959F4F0C945804BB2788
S11308B0FB015527AA27880F991FAA1FA41710F018
S11308C0A41B83955051B9F7A05DAA3308F0A95D24
S11308D0A193009779F7B111B1931192CB010C94C4
S11308E07104DC01FC01672F71917723E1F73297E2
S11308F004C07C916D9370836291AE17BF07C8F3F7
S10909000895F894FFCFF6
S113090654656D705F6176673A0043757272656E01
S1070916743A00002B
S9030000FC
